:020000040800F2
:10000000005000202D620008296100082B610008C3
:100010002D6100082F610008316100080000000018
:100020000000000000000000000000003361000834
:1000300035610008000000003761000839610008E0
:100040007562000875620008756200087562000834
:100050007562000875620008756200087562000824
:100060007562000875620008756200087562000814
:100070007562000875620008756200087562000804
:1000800075620008756200087562000875620008F4
:1000900075620008756200087562000875620008E4
:1000A00075620008756200087562000875620008D4
:1000B00075620008756200087562000875620008C4
:1000C00075620008756200087562000875620008B4
:1000D00075620008756200087562000875620008A4
:1000E0007562000875620008756200080000000073
:1000F0000000000000000000000000000000000000
:0C01000000000000000000005FF808F1A3
:1001100010B5054C237833B9044B13B10448AFF341
:1001200000800123237010BDF001002000000000BA
:1001300080A5000808B5034B1BB103490348AFF382
:10014000008008BD00000000F401002080A5000828
:10015000034613F8012B002AFBD1181A0138704707
:1001600081F0004102E000BF83F0004330B54FEA68
:1001700041044FEA430594EA050F08BF90EA020FD5
:100180001FBF54EA000C55EA020C7FEA645C7FEA68
:10019000655C00F0E2804FEA5454D4EB5555B8BF8B
:1001A0006D420CDD2C4480EA020281EA030382EAFC
:1001B000000083EA010180EA020281EA0303362D8E
:1001C00088BF30BD11F0004F4FEA01314FF4801C61
:1001D0004CEA113102D0404261EB410113F0004F73
:1001E0004FEA03334CEA133302D0524263EB43032A
:1001F00094EA050F00F0A780A4F10104D5F1200EC8
:100200000DDB02FA0EFC22FA05F2801841F1000122
:1002100003FA0EF2801843FA05F359410EE0A5F1F6
:1002200020050EF1200E012A03FA0EFC28BF4CF027
:10023000020C43FA05F3C01851EBE37101F00045DD
:1002400007D54FF0000EDCF1000C7EEB00006EEBEA
:100250000101B1F5801F1BD3B1F5001F0CD3490874
:100260005FEA30004FEA3C0C04F101044FEA4452CB
:1002700012F5800F80F09A80BCF1004F08BF5FEA52
:10028000500C50F1000041EB045141EA050130BD32
:100290005FEA4C0C404141EB0101013C28BFB1F544
:1002A000801FE9D291F0000F04BF01460020B1FA8F
:1002B00081F308BF2033A3F10B03B3F120020CDA62
:1002C0000C3208DD02F1140CC2F10C0201FA0CF040
:1002D00021FA02F10CE002F11402D8BFC2F1200CA5
:1002E00001FA02F120FA0CFCDCBF41EA0C0190405B
:1002F000E41AA2BF01EB0451294330BD6FEA0404A4
:100300001F3C1CDA0C340EDC04F11404C4F120028E
:1003100020FA04F001FA02F340EA030021FA04F3A0
:1003200045EA030130BDC4F10C04C4F1200220FAF7
:1003300002F001FA04F340EA0300294630BD21FA35
:1003400004F0294630BD94F0000F83F4801306BFFB
:1003500081F480110134013D4EE77FEA645C18BFEF
:100360007FEA655C29D094EA050F08BF90EA020F86
:1003700005D054EA000C04BF1946104630BD91EA7E
:10038000030F1EBF0021002030BD5FEA545C05D181
:100390004000494128BF41F0004130BD14F58004C0
:1003A0003CBF01F5801130BD01F0004545F0FE4134
:1003B00041F470014FF0000030BD7FEA645C1ABF69
:1003C000194610467FEA655C1CBF0B46024650EAA0
:1003D000013406BF52EA033591EA030F41F40021CC
:1003E00030BD00BF90F0000F04BF0021704730B552
:1003F0004FF4806404F132044FF000054FF0000127
:1004000050E700BF90F0000F04BF0021704730B5E7
:100410004FF4806404F1320410F0004548BF4042BC
:100420004FF000013EE700BF42004FEAE2014FEA11
:1004300031014FEA02701FBF12F07F4393F07F4FEC
:1004400081F06051704732F07F4208BF704793F0EF
:100450007F4F04BF41F40021704730B54FF4607402
:1004600001F0004521F000411CE700BF50EA010205
:1004700008BF704730B54FF000050AE050EA0102AE
:1004800008BF704730B511F0004502D5404261EB1E
:1004900041014FF4806404F132045FEA915C3FF45F
:1004A000D8AE4FF003025FEADC0C18BF03325FEAFC
:1004B000DC0C18BF033202EBDC02C2F1200300FAAD
:1004C00003FC20FA02F001FA03FE40EA0E0021FAD2
:1004D00002F11444BDE600BF70B54FF0FF0C4CF4C0
:1004E000E06C1CEA11541DBF1CEA135594EA0C0F72
:1004F00095EA0C0F00F0DEF82C4481EA030621EAAD
:100500004C5123EA4C5350EA013518BF52EA0335E7
:1005100041F4801143F4801338D0A0FB02CE4FF099
:100520000005E1FB02E506F00042E0FB03E54FF0C9
:100530000006E1FB03569CF0000F18BF4EF0010EC1
:10054000A4F1FF04B6F5007F64F5407404D25FEABD
:100550004E0E6D4146EB060642EAC62141EA555170
:100560004FEAC52040EA5E504FEACE2EB4F1FD0CB2
:1005700088BFBCF5E06F1ED8BEF1004F08BF5FEA30
:10058000500E50F1000041EB045170BD06F00046E2
:1005900046EA010140EA020081EA0301B4EB5C048F
:1005A000C2BFD4EB0C0541EA045170BD41F4801187
:1005B0004FF0000E013C00F3AB8014F1360FDEBFAC
:1005C000002001F0004170BDC4F10004203C35DA88
:1005D0000C341BDC04F11404C4F1200500FA05F30B
:1005E00020FA04F001FA05F240EA020001F00042AC
:1005F00021F0004110EBD37021FA04F642EB060122
:100600005EEA430E08BF20EAD37070BDC4F10C044B
:10061000C4F1200500FA04F320FA05F001FA04F20F
:1006200040EA020001F0004110EBD37041F10001FB
:100630005EEA430E08BF20EAD37070BDC4F1200506
:1006400000FA05F24EEA020E20FA04F301FA05F26E
:1006500043EA020321FA04F001F0004121FA04F216
:1006600020EA020000EBD3705EEA430E08BF20EAE6
:10067000D37070BD94F0000F0FD101F00046400020
:1006800041EB010111F4801F08BF013CF7D041EAA2
:10069000060195F0000F18BF704703F000465200A6
:1006A00043EB030313F4801F08BF013DF7D043EA77
:1006B0000603704794EA0C0F0CEA135518BF95EA2D
:1006C0000C0F0CD050EA410618BF52EA4306D1D1B4
:1006D00081EA030101F000414FF0000070BD50EAD3
:1006E000410606BF1046194652EA430619D094EA5D
:1006F0000C0F02D150EA013613D195EA0C0F05D147
:1007000052EA03361CBF104619460AD181EA03019A
:1007100001F0004141F0FE4141F470014FF0000052
:1007200070BD41F0FE4141F4780170BD70B54FF0ED
:10073000FF0C4CF4E06C1CEA11541DBF1CEA13556D
:1007400094EA0C0F95EA0C0F00F0A7F8A4EB05044F
:1007500081EA030E52EA03354FEA013100F0888046
:100760004FEA03334FF0805545EA131343EA12630F
:100770004FEA022245EA111545EA10654FEA0026C4
:100780000EF000419D4208BF964244F1FD0404F57D
:10079000407402D25B084FEA3202B61A65EB0305D9
:1007A0005B084FEA32024FF480104FF4002CB6EB96
:1007B000020E75EB030E22BFB61A754640EA0C0016
:1007C0005B084FEA3202B6EB020E75EB030E22BF56
:1007D000B61A754640EA5C005B084FEA3202B6EB97
:1007E000020E75EB030E22BFB61A754640EA9C0056
:1007F0005B084FEA3202B6EB020E75EB030E22BF26
:10080000B61A754640EADC0055EA060E18D04FEAE3
:10081000051545EA16754FEA06164FEAC30343EA83
:1008200052734FEAC2025FEA1C1CC0D111F4801F50
:100830000BD141EA00014FF000004FF0004CB6E749
:1008400011F4801F04BF01430020B4F1FD0C88BFE8
:10085000BCF5E06F3FF6AFAEB5EB030C04BFB6EBF3
:10086000020C5FEA500C50F1000041EB045170BDE6
:100870000EF0004E4EEA113114EB5C04C2BFD4EB13
:100880000C0541EA045170BD41F480114FF0000E97
:10089000013C90E645EA060E8DE60CEA135594EA13
:1008A0000C0F08BF95EA0C0F3FF43BAF94EA0C0F16
:1008B0000AD150EA01347FF434AF95EA0C0F7FF48B
:1008C00025AF104619462CE795EA0C0F06D152EADF
:1008D00003353FF4FDAE1046194622E750EA4106C3
:1008E00018BF52EA43067FF4C5AE50EA41047FF4D4
:1008F0000DAF52EA43057FF4EBAE12E74FF0FF3C39
:1009000006E000BF4FF0010C02E000BF4FF0010C09
:100910004DF804CD4FEA410C7FEA6C5C4FEA430C82
:1009200018BF7FEA6C5C1BD001B050EA410C0CBFD1
:1009300052EA430C91EA030F02BF90EA020F002033
:10094000704710F1000F91EA030F58BF994208BF9A
:1009500090422CBFD8176FEAE37040F00100704757
:100960004FEA410C7FEA6C5C02D150EA013C07D1AE
:100970004FEA430C7FEA6C5CD6D152EA033CD3D0F9
:100980005DF8040B704700BF8446104662468C46F3
:100990001946634600E000BF01B5FFF7B7FF002826
:1009A00048BF10F1000F01BD4DF808EDFFF7F4FF4F
:1009B0000CBF012000205DF808FB00BF4DF808EDDA
:1009C000FFF7EAFF34BF012000205DF808FB00BFFD
:1009D0004DF808EDFFF7E0FF94BF012000205DF81F
:1009E00008FB00BF4DF808EDFFF7CEFF94BF0120D4
:1009F00000205DF808FB00BF4DF808EDFFF7C4FFCD
:100A000034BF012000205DF808FB00BF4FEA410C15
:100A10007FEA6C5C02D150EA013C0AD14FEA430CF8
:100A20007FEA6C5C02D152EA033C02D14FF0000035
:100A300070474FF0010070474FEA410212F5001273
:100A400015D211D56FF47873B3EB625212D94FEA15
:100A5000C12343F0004343EA505311F0004F23FAFF
:100A600002F018BF404270474FF00000704750EA54
:100A7000013005D111F0004008BF6FF00040704711
:100A80004FF00000704700BF4FEA4102B2F1E0436F
:100A900024BFB3F5001CDCF1FE5C0DD901F0004C65
:100AA0004FEAC0024CEA5070B2F1004F40EB8300B5
:100AB00008BF20F00100704711F0804F21D113F1E1
:100AC0003872BCBF01F00040704741F480114FEA1A
:100AD0005252C2F11802C2F1200C10FA0CF320FAA3
:100AE00002F018BF40F001004FEAC1234FEAD323C0
:100AF00003FA0CFC40EA0C0023FA02F34FEA43032A
:100B0000CCE77FEA625307D150EA01331EBF4FF0B2
:100B1000FE4040F44000704701F0004040F0FE40CD
:100B200040F40000704700BF80F0004002E000BFCA
:100B300081F0004142001FBF5FEA410392EA030FC8
:100B40007FEA226C7FEA236C6AD04FEA1262D2EB12
:100B50001363C1BFD218414048404140B8BF5B4217
:100B6000192B88BF704710F0004F40F4000020F0B0
:100B70007F4018BF404211F0004F41F4000121F0C6
:100B80007F4118BF494292EA030F3FD0A2F1010210
:100B900041FA03FC10EB0C00C3F1200301FA03F14E
:100BA00000F0004302D5494260EB4000B0F5000F71
:100BB00013D3B0F1807F06D340084FEA310102F130
:100BC0000102FE2A51D2B1F1004F40EBC25008BFE2
:100BD00020F0010040EA03007047490040EB0000AC
:100BE000013A28BFB0F5000FEDD2B0FA80FCACF1AD
:100BF000080CB2EB0C0200FA0CF0AABF00EBC250DA
:100C000052421843BCBFD0401843704792F0000FC7
:100C100081F4000106BF80F400000132013BB5E71A
:100C20004FEA41037FEA226C18BF7FEA236C21D090
:100C300092EA030F04D092F0000F08BF08467047F5
:100C400090EA010F1CBF0020704712F07F4F04D1C3
:100C5000400028BF40F00040704712F100723CBFD6
:100C600000F50000704700F0004343F0FE4040F400
:100C7000000070477FEA226216BF08467FEA2363BE
:100C80000146420206BF5FEA412390EA010F40F4A9
:100C9000800070474FF0000304E000BF10F00043F5
:100CA00048BF40425FEA000C08BF704743F09643DC
:100CB00001464FF000001CE050EA010208BF7047F7
:100CC0004FF000030AE000BF50EA010208BF70477E
:100CD00011F0004302D5404261EB41015FEA010C93
:100CE00002BF84460146002043F0B64308BFA3F18B
:100CF0008053A3F50003BCFA8CF2083AA3EBC2536D
:100D000010DB01FA02FC634400FA02FCC2F120028B
:100D1000BCF1004F20FA02F243EB020008BF20F0C2
:100D20000100704702F1200201FA02FCC2F1200228
:100D300050EA4C0021FA02F243EB020008BF20EA1D
:100D4000DC7070474FF0FF0C1CEAD0521EBF1CEA4B
:100D5000D15392EA0C0F93EA0C0F6FD01A4480EA39
:100D6000010C400218BF5FEA41211ED04FF0006322
:100D700043EA501043EA5111A0FB01310CF000404E
:100D8000B1F5000F3EBF490041EAD3715B0040EA74
:100D9000010062F17F02FD2A1DD8B3F1004F40EB44
:100DA000C25008BF20F00100704790F0000F0CF017
:100DB000004C08BF49024CEA502040EA51207F3ADB
:100DC000C2BFD2F1FF0340EAC250704740F40000B6
:100DD0004FF00003013A5DDC12F1190FDCBF00F0A7
:100DE00000407047C2F10002410021FA02F1C2F155
:100DF000200200FA02FC5FEA310040F1000053EAF1
:100E00004C0308BF20EADC70704792F0000F00F03E
:100E1000004C02BF400010F4000F013AF9D040EA44
:100E20000C0093F0000F01F0004C02BF490011F4D8
:100E3000000F013BF9D041EA0C018FE70CEAD153D6
:100E400092EA0C0F18BF93EA0C0F0AD030F0004C56
:100E500018BF31F0004CD8D180EA010000F000400A
:100E6000704790F0000F17BF90F0004F084691F0C8
:100E7000000F91F0004F14D092EA0C0F01D1420202
:100E80000FD193EA0C0F03D14B0218BF084608D1CB
:100E900080EA010000F0004040F0FE4040F4000015
:100EA000704740F0FE4040F4400070474FF0FF0CA8
:100EB0001CEAD0521EBF1CEAD15392EA0C0F93EAEF
:100EC0000C0F69D0A2EB030280EA010C49024FEA41
:100ED000402037D04FF0805343EA111143EA1013FA
:100EE0000CF000408B4238BF5B0042F17D024FF4B2
:100EF000000C8B4224BF5B1A40EA0C00B3EB510F8D
:100F000024BFA3EB510340EA5C00B3EB910F24BF75
:100F1000A3EB910340EA9C00B3EBD10F24BFA3EBFA
:100F2000D10340EADC001B0118BF5FEA1C1CE0D1C2
:100F3000FD2A3FF650AF8B4240EBC25008BF20F075
:100F4000010070470CF0004C4CEA50207F32C2BFC9
:100F5000D2F1FF0340EAC250704740F400004FF066
:100F60000003013A37E792F0000F00F0004C02BF97
:100F7000400010F4000F013AF9D040EA0C0093F061
:100F8000000F01F0004C02BF490011F4000F013BBB
:100F9000F9D041EA0C0195E70CEAD15392EA0C0F23
:100FA00008D142027FF47DAF93EA0C0F7FF470AF5B
:100FB000084676E793EA0C0F04D14B023FF44CAF9E
:100FC00008466EE730F0004C18BF31F0004CCAD133
:100FD00030F000427FF45CAF31F000437FF43CAF6F
:100FE0005FE700BF4FF0FF3C06E000BF4FF0010C91
:100FF00002E000BF4FF0010C4DF804CD4FEA400273
:101000004FEA41037FEA226C18BF7FEA236C11D0BC
:1010100001B052EA530C18BF90EA010F58BFB2EB6F
:10102000030088BFC81738BF6FEAE17018BF40F0EF
:10103000010070477FEA226C02D15FEA402C05D1A3
:101040007FEA236CE4D15FEA412CE1D05DF8040B28
:10105000704700BF844608466146FFE70FB5FFF7BB
:10106000C9FF002848BF10F1000F0FBD4DF808ED73
:10107000FFF7F4FF0CBF012000205DF808FB00BF64
:101080004DF808EDFFF7EAFF34BF012000205DF8BE
:1010900008FB00BF4DF808EDFFF7E0FF94BF01200B
:1010A00000205DF808FB00BF4DF808EDFFF7D2FF08
:1010B00094BF012000205DF808FB00BF4DF808ED4B
:1010C000FFF7C8FF34BF012000205DF808FB00BF18
:1010D0004FEA40024FEA41037FEA226C02D15FEA05
:1010E000402C08D17FEA236C02D15FEA412C02D167
:1010F0004FF0000070474FF0010070474FEA400288
:10110000B2F1FE4F0FD34FF09E03B3EB12620DD935
:101110004FEA002343F0004310F0004F23FA02F09F
:1011200018BF404270474FF00000704712F1610F46
:1011300001D1420205D110F0004008BF6FF000401D
:1011400070474FF00000704742000ED2B2F1FE4FE0
:101150000BD34FF09E03B3EB126209D44FEA002386
:1011600043F0004323FA02F070474FF0000070474D
:1011700012F1610F01D1420202D14FF0FF307047EE
:101180004FF00000704700BF38B50E4B0546187889
:101190004FF47A73B3FBF0F30B4A1068B0FBF3F033
:1011A00000F090F8044658B90F2D09D80246294698
:1011B0004FF0FF3000F054F82046044B1D6038BD5E
:1011C0000120FCE7000000201C000020040000209B
:1011D000074A08B51368032043F01003136000F0BA
:1011E0002DF80020FFF7D0FF04F0D6FE002008BD48
:1011F00000200240034A044B11681B780B44136023
:10120000704700BF0C02002000000020014B18684E
:10121000704700BF0C02002038B50446FFF7F6FF08
:101220000546631C1EBF044B1B78E418FFF7EEFF56
:10123000431BA342FAD338BD000000200749030234
:10124000CA6803F4E06322F4E0621204120C134350
:1012500043F0BF6343F40033CB60704700ED00E020
:10126000164B30B5DC68C4F30224C4F10703251D16
:10127000042B28BF0423062D4FF0FF3598BF002410
:1012800005FA03F388BF033C21EA0303A34005FAF0
:1012900004F422EA0402002843EA0203ACBF00F18E
:1012A0006040074A4FEA0313DBB2ABBF00F5614071
:1012B00000F00F0080F80033135430BD00ED00E063
:1012C00014ED00E00138B0F1807F0BD24FF0E02345
:1012D000F021054A586182F8231000200722986106
:1012E0001A6170470120704700ED00E02DE9F74FCB
:1012F00000221646644F654BDFF894C1DFF894E195
:101300000D6835FA06F402D103B0BDE8F08F4FF056
:10131000010808FA06F805EA080438EA05057BD151
:101320004D68032D07D8013D022D00F28880DFE8CB
:1013300005F0969BA100122D00F099806ED8112D1A
:1013400000F08F80FF2C98BF82464FF00F0988BFB6
:1013500000F1040A4FEA8605DAF8008088BF203DD4
:1013600009FA05FB28EA0B0802FA05F548EA050523
:10137000CAF80050D1F804A01AF0805F4CD0BD69C3
:1013800026F0030845F00105BD61BD6908F18048FC
:1013900005F00105019508F5803806F0030B019D65
:1013A0004FEA8B0BD8F8085009FA0BF925EA09091E
:1013B000394DA84262D005F58065A84260D005F598
:1013C0008065A8425ED005F58065A8420CBF032564
:1013D000042505FA0BF545EA0905C8F808501D680B
:1013E0001AF4803F14BF2543A5431D605D681AF4BD
:1013F000003F14BF2543A5435D609D681AF4801F1C
:1014000014BF2543A5439D60DD681AF4001F14BF77
:101410002C4325EA0404DC60013671E7DFF87C9098
:101420004D450CD017D8A9F580194D4507D009F5C1
:1014300070294D4503D0A9F580194D4582D18A68A0
:10144000D2B1012A08BFC0F810804FF0080218BFBF
:10145000C0F8148076E76545F1D07545EEE7CA68B7
:1014600070E7CA6804326DE7CA6808326AE7CA687A
:101470000C3267E7002265E7042263E70025A8E74E
:101480000125A6E70225A4E7001002400004014060
:10149000000031100000321000080140000022104E
:1014A0008368194214BF0120002070470AB101610E
:1014B00070470904FBE7016800224B6913F480635D
:1014C00010D06FF480634B612023026380F83D30BD
:1014D00080F83E20036C80F83C2043F00403036452
:1014E00001207047184670472DE9F84606460F461A
:1014F00091461D464FEA114A3368BAF1010F0CBFFD
:101500005C699C6927EA0404A4B2B4FA84F464090F
:10151000A14501D0002017E06A1CEED0FFF776FE4F
:10152000089BC01AA84201D8002DE5D10023202233
:101530000120336386F83D2086F83E30326C86F811
:101540003C3042F020023264BDE8F8862DE9F041DB
:1015500004460F46164698462568686927EA000043
:1015600080B2B8B16B695A0516D52B68202243F4B6
:1015700000732B606FF480636B610023236384F836
:101580003D2084F83E30226C42F0040201202264A7
:1015900084F83C30BDE8F081731CDED0FFF736FEE6
:1015A000A0EB0800B04201D8002ED5D100232022A4
:1015B000236384F83D2084F83E30226C42F0200200
:1015C000E4E770B504460D46164621684B6913F0F2
:1015D000400301D0002010E04A69D2060ED56FF01A
:1015E00010024A612022236384F83D2084F83E30B3
:1015F000226C0120226484F83C3070BDFFF706FEA7
:10160000801BA84201D8002DDFD1002320222363B4
:1016100084F83D2084F83E30226C42F02002E8E756
:1016200070B504460D46164623685B695B0701D515
:10163000002070BD2046FFF73EFFA8B96A1CF3D01A
:10164000FFF7E4FD801BA84201D8002DECD1002358
:101650002022236384F83D2084F83E30226C84F8F5
:101660003C3042F0200222640120E2E770B50446DB
:101670000D46164623685B691B0601D5002070BD28
:101680002046FFF718FFA8B96A1CF3D0FFF7BEFD8C
:10169000801BA84201D8002DECD100232022236317
:1016A00084F83D2084F83E30226C84F83C3042F0CF
:1016B000200222640120E2E72DE9FF479A46DDE996
:1016C0000C78036815461A680E4642F480621A6068
:1016D0001A684FF0011142F480721A603B460022F2
:1016E000CDF800800446FFF7FFFE236848B11B6871
:1016F000DB0502D54FF400732364032004B0BDE87A
:10170000F0875FFA86F906F0FE061E613A46434608
:1017100020462949FFF71AFF08B10120EEE72368A8
:1017200003905A69394603929B69424603932046C7
:10173000039BFFF79BFF40B1236C042B01BF226882
:10174000136843F400731360E7E7BAF1010F2368ED
:101750001AD1EDB24246394620461D61FFF786FF99
:1017600002460028E8D1216820460B6843F48073C4
:101770000B603B464FF00111CDF80080FFF7B4FE3F
:10178000226860B11368B3E72A0A1A6139464246F3
:101790002046FFF76BFF0028CED12368D9E749F038
:1017A00001031361204643463A460349FFF7CEFE44
:1017B000003818BF0120A1E70200010070B50446FF
:1017C00008B9012070BD90F83D3003F0FF021BB94D
:1017D00080F83C2004F002FC242384F83D30236888
:1017E0001A6822F001021A601A6842F400421A6074
:1017F0001A6822F400421A6000F010FD3F4A636844
:10180000934294BF3E4A3F4A90428CBF002201223D
:10181000002AD6D1394E3C49B342B0FBF1F188BF22
:101820004FF49676226800F1FF30556825F03F05A9
:1018300045EA010582BF71434FF47A76B1FBF6F1B8
:101840005560156A013125F03F0529431162D169C0
:101850002A4D21F44F41AB4221F0FF0132D85B0009
:10186000B0FBF3F0431C40F6FC70034242D0C3F3DC
:101870000B030B43D3611168D4E9073021F0C00199
:1018800003430B4313609168D4E9030321F403413C
:10189000034321F0FF010B439360D168D4E9053085
:1018A00021F0FF0103430B43D3601368002043F092
:1018B000010313602023206484F83D30206384F802
:1018C0003E007FE7A56855B903EB4303B0FBF3F394
:1018D0000133C3F30B037BB143F40043C9E719257C
:1018E0006B43B0FBF3F30133C3F30B0323B143F4B6
:1018F0004043BEE70423BCE70123BAE7A08601000A
:101900007F841E00FF083D0040420F002DE9F04398
:10191000044685B098460D4691460C9FFFF776FC2D
:1019200094F83D300646202B04D00225284605B009
:10193000BDE8F08300901923012220465B49FFF7A0
:10194000D3FD0028F1D194F83C30012BEDD00123D8
:10195000216884F83C300B68DA075EBF0B6843F0FF
:1019600001030B600B6823F400630B60212384F8F0
:101970003D30102384F83E3000232364A4F82A80ED
:10198000638DC4F824902385494BE362E36A082BF6
:1019900004D0012B02D013F5803F04D10B6843F42F
:1019A00080730B6002E0236B122BF7D000223B46C2
:1019B0004FF0011120460096FFF796FD226838B1DE
:1019C0001368DB0544BF4FF4007323640125ADE7C2
:1019D0002369B3F5804F21D105F0FE05156133462B
:1019E0003A4620463349FFF7B1FD05460028EDD1C0
:1019F000236803905A6903929B690393039B238D89
:101A0000F3B921680A6842F400720A60202284F85F
:101A10003C3084F83D2084F83E3087E7EB1103F03A
:101A2000060343F0F0031361204633463A46224949
:101A3000FFF78CFD0028C9D12368EDB21D61CEE708
:101A4000324639462046FFF711FE40B1236C042B85
:101A5000BCD12268136843F400731360B6E7636A6D
:101A600020681A4612F8011B01616262628D013A18
:101A700092B26285228DD0F814C0511E89B21CF03A
:101A8000040F21850AD049B159780233016163629C
:101A9000638D023A013B9BB263852285324639460B
:101AA0002046FFF7BDFD0028A9D0CFE702001000B7
:101AB0000000FFFF02000100080001002DE9F043D3
:101AC00099460023044689B003930D469046129F21
:101AD000FFF79CFB94F83D300646202B04D00225EE
:101AE000284609B0BDE8F083009019230122204662
:101AF0008D49FFF7F9FC0028F1D194F83C30012B17
:101B0000EDD00123206884F83C3003682946DB07C8
:101B100058BF036842465CBF43F00103036003689B
:101B200023F400630360222384F83D30402384F8CB
:101B30003E3000232364109B20466362BDF844308E
:101B4000CDE900766385638D2385784BE3624B4650
:101B5000FFF7B2FD054608B10125C1E7228D2368D4
:101B6000C2B904905A6904929A690492049A1A6854
:101B700042F400721A60DFF8B881DFF8B891238D63
:101B8000002B37D1202284F83C3084F83D2084F8A3
:101B90003E30A5E7012A11D11A6822F480621A604A
:101BA00072B6236805905A6905929A690592059A5A
:101BB0001A6842F400721A6062B6DCE7022A1A68F8
:101BC0000ED142F400621A6072B6236806905A6918
:101BD00006929A690692069A1A6822F48062EAE7E7
:101BE00042F480621A6007905A6907929B690793D2
:101BF000079BC0E7032B78D8012B15D13246394615
:101C00002046FFF7DEFC0028A6D123681A69636A24
:101C10001A70636A01336362238D013B2385638DF0
:101C2000013B9BB26385AAE7022B4FF000023B46C3
:101C300041462046009618D1FFF756FC00288BD16C
:101C400072B623681A6842F400721A601A69636AED
:101C50001A70636A01336362238D013B2385638DB0
:101C6000013B9BB2638562B6CFE7FFF73DFC0028DE
:101C70007FF472AF2268136823F48063136072B636
:101C800046F2A81123681A69636A1A70626A531CC3
:101C90006362238D013B2385638D013B9BB263858A
:101CA000D9F80030B3FBF1F323214B430393039B9B
:101CB000013B0393039B6BB92022236384F83D20EF
:101CC00084F83E30226C42F02002226462B684F82E
:101CD0003C3041E7236859694807E8D5196841F461
:101CE000007119601B695370B3E7324639462046CC
:101CF000FFF767FC00287FF42FAF23681A69636A37
:101D00001A70626A531C6362238D013B2385638DC5
:101D1000013B9BB263852368596949077FF52FAF63
:101D20001B69537075E700BF020010000000FFFF41
:101D3000040001001C0000202DE9F341054638B3E2
:101D40000368DB0710D42B689F075ED42B68190744
:101D500000F195802B685A0700F1C180E8690028DE
:101D600040F02C81002029E0904C636803F00C03C4
:101D7000042B07D0636803F00C03082B0AD16368B7
:101D8000DE0307D523689C03DDD56B68002BDAD111
:101D9000012013E06B68B3F5803F12D1236843F450
:101DA00080332360FFF732FA064623689803CAD4CB
:101DB000FFF72CFA801B6428F7D9032002B0BDE896
:101DC000F0819BB9236823F480332360236823F4D4
:101DD00080232360FFF71AFA064623689903B2D5D9
:101DE000FFF714FA801B6428F7D9E6E7B3F5A02FB4
:101DF000236803D143F480232360CFE723F48033A7
:101E00002360236823F48023CBE7684C636813F0D6
:101E10000C0F07D0636803F00C03082B10D1636824
:101E2000DA030DD423689B0702D52B69012BAFD1B0
:101E300023686A6923F0F80343EAC203236085E755
:101E40002A695B4B6AB101221A60FFF7DFF9064687
:101E500023689F07ECD4FFF7D9F9801B0228F7D934
:101E6000ABE71A60FFF7D2F90646236898077FF5BB
:101E70006DAFFFF7CBF9801B0228F6D99DE7AA6961
:101E80004A4E4B4BE2B10122C3F88024FFF7BEF962
:101E90000446736A9B070DD54FF4FA52454B1B68F5
:101EA000B3FBF2F3019300BF019B5A1E0192002B7A
:101EB000F9D14FE7FFF7AAF9001B0228E9D97CE71F
:101EC000C3F88024FFF7A2F90446736A9F077FF5E1
:101ED00041AFFFF79BF9001B0228F6D96DE7334CA1
:101EE000E369D80024D40127E36943F08053E36118
:101EF000E36903F080530093009B2F4E3368D905AC
:101F000018D5EB68012B26D1236A43F00103236225
:101F1000FFF77CF941F288380646236A9B073FD5D4
:101F2000002F3FF41BAFE36923F08053E36115E713
:101F30000027E2E7336843F480733360FFF766F904
:101F400080463368DA05DCD4FFF760F9A0EB0800BF
:101F50006428F6D931E7ABB9236A41F2883823F017
:101F600001032362236A23F004032362FFF74EF97F
:101F70000646236A9807D3D5FFF748F9801B4045EA
:101F8000F7D91AE7052B236A03D143F00403236230
:101F9000BAE723F001032362236A23F00403B6E7C0
:101FA000FFF734F9801B4045B7D906E7001002401F
:101FB000000042421C000020007000402A4C636870
:101FC00003F00C03082B3ED00022284B02281A668F
:101FD0002CD1FFF71BF906462368990120D42B6A00
:101FE000B3F5803F05D16268A96822F400320A4344
:101FF0006260696A62680B4322F47412134301221F
:1020000063601A4B1A66FFF701F9054623689A01C7
:102010003FF5A8AEFFF7FAF8401B0228F6D9CCE648
:10202000FFF7F4F8801B0228D6D9C6E6FFF7EEF8D2
:10203000054623689B017FF595AEFFF7E7F8401B47
:102040000228F6D9B9E601283FF4B8AE63682A6AD7
:1020500003F4803191427FF49BAE6A6A03F47013FB
:1020600093423FF47FAE93E60010024000004242EC
:1020700030B5184B87B002AC03F110052246186842
:102080005968083303C2AB421446F7D140F201232A
:102090001149ADF804304B6803F00C02082A17D13F
:1020A000C3F3834218326A44DB0312F8100C0CD5D8
:1020B0004B680A4AC3F34043504318336B4413F848
:1020C000143CB0FBF3F007B030BD054B5843FAE7C2
:1020D0000248F8E7D0A500080010024000127A007C
:1020E00000093D002DE9F0410D46044610B90120DC
:1020F000BDE8F081444A136803F007038B4228D3FC
:1021000021688E0730D4CA0743D43F4A136803F0CE
:102110000703AB4265D822683C4D12F0040F6CD126
:10212000130706D56B68226923F4605343EAC203A0
:102130006B60FFF79DFF6B68354AC3F30313D35CF5
:10214000D840344B1860344B1868FFF71DF8002056
:10215000CEE7136823F007030B431360136803F003
:1021600007038B42C3D1CBE7284B11F0040F1EBFEE
:102170005A6842F4E0625A60080742BF5A6842F463
:1021800060525A605A68A06822F0F00202435A6016
:10219000B9E762681D4E012A33681AD113F4003F73
:1021A000A5D0736841F2883823F0030313437360AA
:1021B000FFF72CF807467368626803F00C03B3EB73
:1021C000820FA2D0FFF722F8C01B4045F3D90320AD
:1021D0008EE7022A02D113F0007FE1E713F0020F2D
:1021E000DEE7136823F007032B431360136803F043
:1021F0000703AB427FF47BAF8DE76B68E16823F4A4
:10220000E0630B436B608BE700200240001002404C
:10221000B4D100081C00002004000020044B054A33
:102220005B68C3F30223D35C034A1068D84070474D
:1022300000100240C4D100081C00002010B5044664
:10224000002851D0436A002B4AD14268B2F5827F00
:1022500000D0C3610023A36294F8513003F0FF0261
:1022600023B9204684F8502003F0F4FE02232268AC
:1022700084F851301368A06823F04003136063684A
:1022800000F4044003F482730343E068A16900F49E
:1022900000600343206900F002000343606900F01E
:1022A0000100034301F400700343E069090C00F0EE
:1022B00038000343206A01F0040100F0800003436A
:1022C000A06A00F40050034313605160D3690020FA
:1022D00023F40063D3610123606584F8513010BD9D
:1022E0000023C0E90433B5E70120F8E7034630B521
:1022F00090F83E2090F83F0093F8425093F8434006
:10230000D2B2C0B2EDB2E4B2C1B9012A45D1012DB9
:1023100045D1022283F83E2083F842201A68116AD0
:1023200021F001011162116A41F0010100201162E6
:102330001A68136843F00103136030BD042911D1FA
:1023400001282AD1012CF8D1022283F83F2083F8FA
:1023500043201A68116A21F010011162116A41F0DC
:102360001001E3E7012A18D1012818D1012DE4D189
:10237000012CE2D1022283F83E2083F83F2083F82B
:10238000422083F843201A68116A21F0010111628A
:10239000116A41F001011162DCE70120CDE710462E
:1023A000CBE700001A4A036890420AD0B0F1804F90
:1023B00007D0A2F59432904203D002F58062904299
:1023C00015D14A6823F070031343114A90420AD092
:1023D000B0F1804F07D0A2F59432904203D002F5BD
:1023E0008062904203D1CA6823F4407313434A6960
:1023F00023F08003134303608B68C3620B6883621E
:10240000034B984204BF0B69036301234361704788
:10241000002C0140F8B50D46044600284DD090F838
:102420003D3003F0FF021BB980F83C2003F04CFE66
:102430000223214684F83D3051F8040B836823F4CD
:10244000804323F007038360FFF7ACFF20682A680E
:1024500086688369A9681643AA6923F4407341EA30
:10246000022123F003030B4323F47C422B69E96927
:102470001B0143EA0123E968076A0B43296A22F03A
:10248000FC0243EA01331343696927F022026F68B3
:10249000866047EA01178361174301230762002022
:1024A00084F8463084F83E3084F83F3084F8423077
:1024B00084F8433084F83D30F8BD0120FCE700008B
:1024C00030B590F83C300246012B4FF0020022D08C
:1024D000136882F83D005C680D6824F070042C439A
:1024E00098685C600C4CA3420AD0B3F1804F07D0CF
:1024F000A4F59434A34203D004F58064A34204D12C
:10250000496820F08000014399600123002082F88F
:102510003D3082F83C0030BD002C014080B582B0D7
:1025200000AF78607B68013B032B17D801A252F8FB
:1025300023F000BF452500084B2500085125000861
:102540005725000800F012F80BE000F027F808E02B
:1025500000F03CF805E000F051F802E000F006F869
:1025600000BF00BF0837BD4680BD00BF80B400AFCC
:10257000074B4FF402521A80064B4EF26A621A80E1
:10258000054B40F231321A8000BFBD4680BC704717
:10259000080000200A0000200C00002080B400AFDA
:1025A000074B42F667021A80064B49F696321A80AC
:1025B000054B4AF21F021A8000BFBD4680BC70471F
:1025C000080000200A0000200C00002080B400AFAA
:1025D000074B40F661021A80064B4FF478421A808E
:1025E000054B44F649221A8000BFBD4680BC7047A7
:1025F000080000200A0000200C00002080B400AF7A
:10260000074B4FF414621A80064B42F6E0721A80B0
:10261000054B45F2A9321A8000BFBD4680BC704709
:10262000080000200A0000200C00002080B582B0C5
:1026300000AF0346FB71002208211648FEF736FF63
:10264000002210211348FEF731FF134AFB79D360B3
:10265000114B9B6803F00203002B0CBF01230023E6
:10266000DBB2002B00D0F3E70B4B9B6803F0800339
:10267000002B14BF01230023DBB2002B00D0F3E7B3
:10268000012210210348FEF711FF00BF0837BD46A5
:1026900080BD00BF000801400030014080B582B01D
:1026A00000AF0346FB71012208211648FEF7FEFE2B
:1026B000002210211348FEF7F9FE134AFB79D3607C
:1026C000114B9B6803F00203002B0CBF0123002376
:1026D000DBB2002B00D0F3E70B4B9B6803F08003C9
:1026E000002B14BF01230023DBB2002B00D0F3E743
:1026F000012210210348FEF7D9FE00BF0837BD466E
:1027000080BD00BF000801400030014090B583B09B
:1027100000AF0446084611461A462346FB8003468E
:10272000BB800B467B8013463B80002208218B48F0
:10273000FEF7BCFE002210218848FEF7B7FE884B4A
:102740002A22DA60864B9B6803F00203002B0CBF41
:1027500001230023DBB2002B00D0F3E7804B9B6802
:1027600003F08003002B14BF01230023DBB2002BF6
:1027700000D0F3E7012208217848FEF797FEFB8896
:102780001B0A9BB2DAB2764BDA60754B9B6803F09A
:102790000203002B0CBF01230023DBB2002B00D06F
:1027A000F3E7FB88DAB26E4BDA606D4B9B6803F09F
:1027B0000203002B0CBF01230023DBB2002B00D04F
:1027C000F3E77B881B0A9BB2DAB2654BDA60644B95
:1027D0009B6803F00203002B0CBF01230023DBB234
:1027E000002B00D0F3E77B88DAB25D4BDA605C4BFC
:1027F0009B6803F00203002B0CBF01230023DBB214
:10280000002B00D0F3E7564B9B6803F08003002BAE
:1028100014BF01230023DBB2002B00D0F3E700221A
:1028200008214E48FEF742FE4D4B2B22DA604C4BFE
:102830009B6803F00203002B0CBF01230023DBB2D3
:10284000002B00D0F3E7464B9B6803F08003002B7E
:1028500014BF01230023DBB2002B00D0F3E70122D9
:1028600008213E48FEF722FEBB881B0A9BB2DAB263
:102870003B4BDA603A4B9B6803F00203002B0CBF22
:1028800001230023DBB2002B00D0F3E7BB88DAB2D0
:10289000334BDA60324B9B6803F00203002B0CBF12
:1028A00001230023DBB2002B00D0F3E73B881B0A97
:1028B0009BB2DAB22A4BDA60294B9B6803F0020321
:1028C000002B0CBF01230023DBB2002B00D0F3E769
:1028D0003B88DAB2224BDA60214B9B6803F002039B
:1028E000002B0CBF01230023DBB2002B00D0F3E749
:1028F0001B4B9B6803F08003002B14BF01230023B4
:10290000DBB2002B00D0F3E7002208211348FEF7CA
:10291000CDFD134B2C22DA60114B9B6803F00203B0
:10292000002B0CBF01230023DBB2002B00D0F3E708
:102930000B4B9B6803F08003002B14BF0123002383
:10294000DBB2002B00D0F3E7012210210348FEF791
:10295000ADFD00BF0C37BD4690BD00BF0008014073
:102960000030014080B500AF002204210A48FEF784
:102970009DFDC820FEF750FC002210210648FEF7FE
:1029800095FDC820FEF748FC012204210248FEF70D
:102990008DFD00BF80BD00BF0008014080B582B042
:1029A00000AF0346FB71002208213448FEF77EFD8C
:1029B000002210213148FEF779FD314B3622DA60D2
:1029C0002F4B9B6803F00203002B0CBF0123002355
:1029D000DBB2002B00D0F3E7294B9B6803F08003A8
:1029E000002B14BF01230023DBB2002B00D0F3E740
:1029F000012210212148FEF759FDFB79032B37D81E
:102A000001A252F823F000BF192A00082F2A00085B
:102A1000452A00085B2A00084820FFF73FFE194BB3
:102A2000F0221A80184B4FF4A0721A8021E028205F
:102A3000FFF734FE134B4FF4A0721A80124BF022B2
:102A40001A8016E08820FFF729FE0E4BF0221A802C
:102A50000D4B4FF4A0721A800BE0E820FFF71EFE2A
:102A6000084B4FF4A0721A80074BF0221A8000E046
:102A700000BF00BF0837BD4680BD00BF0008014051
:102A800000300140100000200E00002080B500AF93
:102A9000012204218448FEF709FDFFF763FF0120AE
:102AA000FFF7C4FD4FF47A70FEF7B6FBCB20FFF7BB
:102AB000BDFD3920FFF7F2FD2C20FFF7EFFD0020D0
:102AC000FFF7ECFD3420FFF7E9FD0220FFF7E6FDFC
:102AD000CF20FFF7ABFD0020FFF7E0FDC120FFF79F
:102AE000DDFD3020FFF7DAFDE820FFF79FFD8520B0
:102AF000FFF7D4FD0020FFF7D1FD7820FFF7CEFDD2
:102B0000EA20FFF793FD0020FFF7C8FD0020FFF744
:102B1000C5FDED20FFF78AFD6420FFF7BFFD032010
:102B2000FFF7BCFD1220FFF7B9FD8120FFF7B6FDCE
:102B3000F720FFF77BFD2020FFF7B0FDC020FFF757
:102B400075FD2320FFF7AAFDC120FFF76FFD1020C0
:102B5000FFF7A4FDC520FFF769FD3E20FFF79EFDAE
:102B60002820FFF79BFDC720FFF760FD8620FFF7B9
:102B700095FD3620FFF75AFD4820FFF78FFD3A20DC
:102B8000FFF754FD5520FFF789FDB120FFF74EFDFB
:102B90000020FFF783FD1820FFF780FDB620FFF728
:102BA00045FD0820FFF77AFD8220FFF777FD2720FB
:102BB000FFF774FDF220FFF739FD0020FFF76EFDEF
:102BC0002620FFF733FD0120FFF768FDE020FFF727
:102BD0002DFD0F20FFF762FD3120FFF75FFD2B2059
:102BE000FFF75CFD0C20FFF759FD0E20FFF756FDA7
:102BF0000820FFF753FD4E20FFF750FDF120FFF7AF
:102C00004DFD3720FFF74AFD0720FFF747FD102055
:102C1000FFF744FD0320FFF741FD0E20FFF73EFDC7
:102C20000920FFF73BFD0020FFF738FDE120FFF70B
:102C3000FDFC0020FFF732FD0E20FFF72FFD1420D2
:102C4000FFF72CFD0320FFF729FD1120FFF726FDDC
:102C50000720FFF723FD3120FFF720FDC120FFF7FC
:102C60001DFD4820FFF71AFD0820FFF717FD0F2074
:102C7000FFF714FD0C20FFF711FD3120FFF70EFDCB
:102C80003620FFF70BFD0F20FFF708FD1120FFF79F
:102C9000CDFC7820FEF7C0FA2920FFF7C7FC022000
:102CA000FFF77CFE00BF80BD0008014080B582B008
:102CB00000AF03463960FB80012208212748FEF758
:102CC000F5FB002210212548FEF7F0FB3B68002BA6
:102CD00023D0FB881B0A9AB2214BDA60204B9B68F9
:102CE00003F00203002B0CBF01230023DBB2002BF7
:102CF00000D0F3E71A4AFB88D360194B9B6803F0B6
:102D00000203002B0CBF01230023DBB2002B00D0F9
:102D1000F3E73B68013B3B60D8E7114B9B6803F04E
:102D20000203002B0CBF01230023DBB2002B00D0D9
:102D3000F3E70B4B9B6803F08003002B14BF0123C8
:102D40000023DBB2002B00D0F3E70122102103485F
:102D5000FEF7ACFB00BF0837BD4680BD0008014050
:102D60000030014080B582B000AF0346FB800E4BBF
:102D70001B889AB20D4B1B889BB200210020FFF7E5
:102D8000C5FC094B1B889BB21A46084B1B889BB29B
:102D900002FB03F31A46FB8811461846FFF786FF2D
:102DA00000BF0837BD4680BD100000200E00002087
:102DB00080B582B000AF0346FB800B46BB80134654
:102DC0007B808D4B1B889BB2FA889A4205D28B4B35
:102DD0001B889BB2BA889A4201D3012300E00023EA
:102DE000002B40F04881002208218548FEF75EFB59
:102DF000002210218248FEF759FB824B2A22DA601A
:102E0000804B9B6803F00203002B0CBF01230023BF
:102E1000DBB2002B00D0F3E77A4B9B6803F0800312
:102E2000002B14BF01230023DBB2002B00D0F3E7FB
:102E3000012208217248FEF739FBFB881B0A9AB26F
:102E4000704BDA606F4B9B6803F00203002B0CBFE2
:102E500001230023DBB2002B00D0F3E7694AFB8893
:102E6000D360684B9B6803F00203002B0CBF012367
:102E70000023DBB2002B00D0F3E7FB8801331A12EA
:102E8000604BDA605F4B9B6803F00203002B0CBFC2
:102E900001230023DBB2002B00D0F3E7FB885A1C90
:102EA000584BDA60574B9B6803F00203002B0CBFB2
:102EB00001230023DBB2002B00D0F3E7514B9B68CA
:102EC00003F08003002B14BF01230023DBB2002B8F
:102ED00000D0F3E7002208214948FEF7E7FA494B02
:102EE0002B22DA60474B9B6803F00203002B0CBFD8
:102EF00001230023DBB2002B00D0F3E7414B9B689A
:102F000003F08003002B14BF01230023DBB2002B4E
:102F100000D0F3E7012208213948FEF7C7FABB8841
:102F20001B0A9AB2374BDA60364B9B6803F00203F8
:102F3000002B0CBF01230023DBB2002B00D0F3E7F2
:102F4000304ABB88D3602F4B9B6803F00203002BF1
:102F50000CBF01230023DBB2002B00D0F3E7BB88BA
:102F600001331A12274BDA60264B9B6803F00203E9
:102F7000002B0CBF01230023DBB2002B00D0F3E7B2
:102F8000BB885A1C1F4BDA601E4B9B6803F0020380
:102F9000002B0CBF01230023DBB2002B00D0F3E792
:102FA000184B9B6803F08003002B14BF0123002300
:102FB000DBB2002B00D0F3E7002208211048FEF717
:102FC00075FA104B2C22DA600E4B9B6803F002035B
:102FD000002B0CBF01230023DBB2002B00D0F3E752
:102FE000084B9B6803F08003002B14BF01230023D0
:102FF000DBB2002B08D0F3E7100000200E00002009
:103000000008014000300140012208211C48FEF761
:103010004DFA7B881B0A9AB21A4BDA60194B9B68EF
:1030200003F00203002B0CBF01230023DBB2002BB3
:1030300000D0F3E7134A7B88D360124B9B6803F000
:103040000203002B0CBF01230023DBB2002B00D0B6
:10305000F3E70C4B9B6803F08003002B14BF0123A4
:103060000023DBB2002B00D0F3E70122102104483B
:10307000FEF71CFA00E000BF0837BD4680BD00BF68
:10308000000801400030014090B583B000AF044615
:10309000084611461A462346FB800346BB800B4672
:1030A0007B8013463B801D4B1B889BB2FA889A425B
:1030B00005D21B4B1B889BB2BA889A4201D30123CD
:1030C00000E00023002B24D1BA887B881344144AE3
:1030D000128892B29342CCBF01230023DBB2002BB3
:1030E00005D00F4B1B889AB2BB88D31A7B80BA8855
:1030F0007B8813449BB2013B9BB2FA88B988F8885D
:10310000FFF704FB7A883B8811461846FFF7CEFD8F
:1031100000E000BF0C37BD4690BD00BF100000208E
:103120000E00002090B589B000AF04460846114655
:103130001A462346FB800346BB800B467B80134622
:103140003B80B7F90020B7F90430D31A83EAE37261
:10315000A2EBE372B7F90210B7F90630CB1A002BD5
:10316000B8BF5B429A42CCBF01230023DBB27B8312
:10317000B7F91A30002B0BD0FB883B83BB88FB8050
:103180003B8BBB807B88FB823B887B80FB8A3B80C0
:10319000B7F90620B7F902309A420BDDFB88BB82F3
:1031A0007B88FB80BB8A7B80BB887B823B88BB8023
:1031B0007B8A3B807A88FB88D31A9BB23B82B7F923
:1031C0000020B7F90430D31A002BB8BF5B42FB8153
:1031D000B7F91030DA0F13445B10FB83B7F9042002
:1031E000B7F900309A4202DA0123BB8302E04FF6BE
:1031F000FF73BB83B7F90620B7F902309A422ADC85
:10320000B7F91A30002B06D0BB88F9883A8E1846D9
:10321000FFF7CEFD05E0FB88B9883A8E1846FFF728
:10322000C7FDFA8BFB89D31A9BB2FB83B7F91E301B
:10323000002B09DABA88BB8B13449BB2BB80FA8B94
:103240003B8A13449BB2FB83B7F906309BB2013330
:103250009BB2FB80CEE700BF2437BD4690BD82B055
:1032600090B587B000AFFB620346FB800B46BB8086
:103270001346FB7097F82C309AB2FB8813449BB22C
:10328000013B9CB297F82D309AB2BB8813449BB295
:10329000013B9BB2B988F8882246FFF737FA002332
:1032A0007B6197F82D301A467B6993423ED23A6B88
:1032B000FB78203B97F82D1001FB03F319467B693F
:1032C0000B445B0013441B88FB6000233B6197F8B1
:1032D0002C301A463B69934224D2FA683B6902FAC1
:1032E00003F303F40043002B0CD0BB8E1B0A9BB2EC
:1032F000DBB21846FFF7D2F9BB8EDBB21846FFF7F8
:10330000CDF90BE03B8F1B0A9BB2DBB21846FFF7EF
:10331000C5F93B8FDBB21846FFF7C0F93B690133B3
:103320003B61D4E77B6901337B61BAE700BF1C379F
:10333000BD46BDE8904002B0704782B080B586B00F
:1033400004AF3A607B610346FB800B46BB803B6861
:103350001B78002B30D0FB883A7D1344B3F5A07F57
:1033600013DB0023FB807B7D9AB2BB881344BB80B8
:10337000BB887A7D1344EF2B1DDC3B681B78202B28
:1033800003D13B6801333B6014E03B681A78B9888D
:10339000F8883B8C0293BB8B0193BB6900937B69DC
:1033A000FFF75DFF3B7D9AB2FB881344FB803B68CF
:1033B00001333B60CBE700BF00BF0837BD46BDE827
:1033C000804002B0704780B582B000AF7860786806
:1033D00003F0A4F9034618460837BD4680BD80B403
:1033E00083B000AF78607B681B7883F00103DAB2AA
:1033F0007B681A7000BF0C37BD4680BC704780B434
:1034000083B000AF78600B46FB707B68FA781A7067
:1034100000BF0C37BD4680BC704780B483B000AF9E
:1034200078607B681B7818460C37BD4680BC7047B7
:1034300080B483B000AF78607B685A697B685A6259
:1034400000BF0C37BD4680BC704780B584B000AF6C
:10345000F8607A603B600B46FB723968F86800F0F0
:1034600038F8FB7A7A681946F86800F080F8034665
:10347000002B04D07968F86800F095F81AE0FB7A20
:103480007A681946F86800F0A1F80346002B04D0CA
:103490003968F86800F0B7F80CE0FB7A7A681946EA
:1034A000F86800F06FFA0346002B03D07968F868DB
:1034B00000F084FAF969F86800F0C8FAFB68343360
:1034C000BA693968184601F0E3FA00BF1037BD4603
:1034D00080BD80B584B000AF786039604FF00001E6
:1034E0003868FDF7EBFD0346002B01D0022300E016
:1034F0000023FB607B685B68FA689A4233D07B6884
:10350000FA685A60786800F0BEF80346002B0CD0C9
:103510007B685B68DBB21846FFF740FA786800F01A
:10352000FDF8786800F078F91DE07B6834331846C0
:10353000FFF773FF034683F00103DBB2002B12D0C9
:103540007B6834333968184601F02EFB0346002BA4
:1035500014BF01230023DBB2002B04D07B6834337B
:10356000184601F050FD00BF1037BD4680BD80B445
:1035700085B000AFF8600B467A60FB72FB7A002BD7
:103580000BD1FB685B7E002B07D1FB68DB697A6897
:10359000D31A322B01D9012300E000231846143737
:1035A000BD4680BC704780B483B000AF786039609E
:1035B0007B6801225A767B6800229A767B683A689B
:1035C000DA6100BF0C37BD4680BC704780B485B05F
:1035D00000AFF8600B467A60FB72FB7A002B0CD1CF
:1035E000FB689B7E002B08D1FB68DB697A68D31AE5
:1035F000B3F5FA7F01D9012300E000231846143700
:10360000BD4680BC704780B582B000AF786039603D
:103610007B6801229A763968786800F004F800BF68
:103620000837BD4680BD80B582B000AF7860396094
:10363000786800F018F8786800F025F80346002B49
:1036400009D0786800F05CF8786800F067F878686E
:1036500000F0E2F803E03968786800F01FF800BF76
:103660000837BD4680BD80B483B000AF78607B680A
:103670001B7A83F00103DAB27B681A7200BF0C3741
:10368000BD4680BC704780B483B000AF78607B6873
:103690001B7A18460C37BD4680BC704790B583B086
:1036A00000AF786039607B6834331846FFF7C0FE9E
:1036B0007B6803F134047B68DB7A1A4613461B01EE
:1036C0009B1A9B001A467B689B7B13441846FCF7A9
:1036D00099FE02460B46204601F0BEF97B689B7DB1
:1036E0001846FEF71BFF7B6803F134007B689B7C68
:1036F0003A68194601F09CFC00BF0C37BD4690BDEE
:1037000080B582B000AF78607B6834330021184602
:10371000FFF775FE00BF0837BD4680BD80B586B097
:1037200004AF78604FF40250FFF71CFB786800F09C
:1037300067F803469AB22C4B4FF402510291019262
:103740005A6800921B68294A19213220FFF7F5FDBB
:10375000786800F055F803469AB2234B4FF40251B3
:10376000029101925A6800921B68214A46214D201D
:10377000FFF7E3FD786800F043F803469AB21A4B6E
:103780004FF40251029101925A6800921B68194A43
:1037900064213C20FFF7D1FD786800F031F8034642
:1037A0009AB2114B4FF40251029101925A68009261
:1037B0001B68114AAA212320FFF7BFFD786800F09B
:1037C0001FF803469AB2084B4FF40251029101923E
:1037D0005A6800921B68094AC8212B20FFF7ADFDEB
:1037E00000BF0837BD4680BD1400002098A5000822
:1037F000A4A50008ACA50008B4A50008C0A5000851
:1038000080B483B000AF78604FF0FF3318460C37B8
:10381000BD4680BC70470000F0B587B004AF78604B
:103820007B6803F124007B68DB7A494A042104F0B9
:103830001DFD7B6803F128007B689B7B444A0421C3
:1038400004F014FD7B681B7B9CB27B685B7B9DB2A4
:103850007B6803F124060021786800F07DF80346B8
:103860009AB23C4B4FF40251029101925A68009275
:103870001B68324629462046FFF75FFD7B68DB7BED
:103880009CB27B681B7C9DB27B6803F128060121FA
:10389000786800F061F803469AB22E4B4FF402515B
:1038A000029101925A6800921B68324629462046CE
:1038B000FFF743FD7B6803F130007B689B7C244A63
:1038C000042104F0D3FC7B68DB7C9CB27B681B7D0D
:1038D0009DB27B6803F130060221786800F03CF865
:1038E00003469AB21B4B4FF40251029101925A685F
:1038F00000921B68324629462046FFF71EFD7B6872
:1039000003F12C007B689B7D114A042104F0AEFC7E
:103910007B68DB7D9CB27B681B7E9DB27B6803F17C
:103920002C060321786800F017F803469AB2094B79
:103930004FF40251029101925A6800921B6832467C
:1039400029462046FFF7F9FC00BF0C37BD46F0BD05
:10395000CCA500081400002080B483B000AF7860CC
:103960000B46FB707B685B7AFA789A4201D1044B74
:1039700000E01F2318460C37BD4680BC704700BFCF
:1039800000F8FFFF80B485B000AFF8600B467A60A6
:10399000FB72FB7A012B0BD1FB685B7E002B07D0FF
:1039A000FB68DB697A68D31A322B01D9012300E066
:1039B000002318461437BD4680BC704780B582B0DE
:1039C00000AF786039607B6800225A767B683A687D
:1039D000DA613968786800F004F800BF0837BD463E
:1039E00080BD80B582B000AF786039607B689B7E17
:1039F000002B11D17868FFF746FE0346002B06D056
:103A0000786800F00DF87868FFF706FF04E07B683F
:103A100034331846FFF7E3FC00BF0837BD4680BDCE
:103A200080B483B000AF78607B685B7A01337A68DA
:103A3000927A93FBF2F101FB02F29B1ADAB27B68F5
:103A40005A7200BF0C37BD4680BC704780B582B04B
:103A500000AF786039607868FFF715FE0346002BE9
:103A600021D03968786800F022F80346002B1AD07C
:103A70003968786800F02DF80346002B03D0786889
:103A800000F05BF809E03968786800F03CF803461C
:103A9000002B02D0786800F05CF87868FFF7BCFE75
:103AA0007B683A681A6200BF0837BD4680BD80B4A3
:103AB00083B000AF786039607B681B6A3A689A42CD
:103AC00014BF01230023DBB218460C37BD4680BC6F
:103AD000704780B483B000AF786039607B681B6A40
:103AE0003A68D31A012B06D07B681B6A3A68D31A4E
:103AF000B3F1FF3F01DA012300E0002318460C3741
:103B0000BD4680BC704780B483B000AF7860396038
:103B10007B681B6A3A68D31AB3F1FF3F05D07B6814
:103B20001B6A3A68D31A012B01DD012300E0002350
:103B300018460C37BD4680BC704780B582B000AFD8
:103B400078600121786800F011F800BF0837BD46A1
:103B500080BD80B582B000AF78600021786800F049
:103B600005F800BF0837BD4680BD000080B582B0B3
:103B700000AF78600B46FB707B685B7A032B23D821
:103B800001A252F823F000BF993B0008A53B0008B2
:103B9000B13B0008BD3B0008FB781946786800F08F
:103BA00017F811E0FB781946786800F04FF80BE041
:103BB000FB781946786800F095F805E0FB7819461F
:103BC000786800F0BAF800BF00BF0837BD4680BD76
:103BD00080B483B000AF78600B46FB707B68DB7A03
:103BE000FA78002A01D0012200E0FF221344DAB261
:103BF0007B68DA727B68DB7AFF2B07D1FB78002BBE
:103C000001D0002200E03B227B68DA727B68DA7A1E
:103C10000D4BA3FB021359090B461B015B1A9B00BA
:103C2000D31ADAB27B68DA727B68DB7A002B06D1B2
:103C30007B689B7B092B02D87B680A229A7300BFA2
:103C40000C37BD4680BC70478988888880B483B0B3
:103C500000AF78600B46FB707B689B7BFA78002A8C
:103C600001D0012200E0FF221344DAB27B689A738C
:103C70007B689B7BFF2B0DD1FB78002B07D07B68EB
:103C8000DB7A002B01D10A2302E0002300E03B2372
:103C90007A6893737B689A7B114BA3FB02135909D3
:103CA0000B461B015B1A9B00D31ADAB27B689A732E
:103CB0007B68DB7A002B0DD17B689B7B092B09D8B5
:103CC000FB78002B03D07B680A229A7302E07B68A2
:103CD0003B229A7300BF0C37BD4680BC704700BFC3
:103CE0008988888880B483B000AF78600B46FB7009
:103CF0007B689B7CFA78002A01D0012200E0FF2239
:103D00001344DAB27B689A74FB78012B09D17B6883
:103D10009A7C7B685B7C9A420AD97B6801229A7400
:103D200006E07B689B7C002B02D17B6803229A749F
:103D300000BF0C37BD4680BC704780B483B000AF75
:103D400078600B46FB707B689B7DFA78002A01D077
:103D5000012200E0FF221344DAB27B689A75FB78F7
:103D6000012B09D17B689A7D7B685B7D9A420AD9D9
:103D70007B6801229A7506E07B689B7D002B02D14F
:103D80007B6804229A7500BF0C37BD4680BC704723
:103D900080B400AF034BB3F900301846BD4680BC79
:103DA000704700BF0800002080B400AF034BB3F998
:103DB00000301846BD4680BC704700BF0A00002096
:103DC00090B585B000AFF860B9607A603B60FB6881
:103DD0005C68FDF71BFA03469C42D4BF0123002315
:103DE000DBB2002B37D0FB689A68FB681B69D418DC
:103DF000FDF70CFA03469C42D4BF01230023DBB23B
:103E0000002B28D0FB681A6AFB689B699A420DDD7B
:103E1000FB6801221A62FB68596AFB689B6A1A46B2
:103E2000F86800F040F9F86800F048F8F86800F029
:103E300067F8F86800F080F83A687968F86800F088
:103E40000FF8B968F86800F086F9FDF7DFF9034666
:103E50001A46FB689A6000BF1437BD4690BD00004B
:103E600080B584B000AFF860B9607A60FB685B6AC7
:103E7000114A82FB03125210DB17D31A1846FCF7C3
:103E80000DFF0346B9681846FCF75CFF0346184669
:103E9000FDF734F90246FB689A637B68002B03D177
:103EA000FB689B6B5B4201E0FB689B6BFA6893636A
:103EB00000BF1037BD4680BD398EE33890B583B062
:103EC00000AF7860FDF7A2F903461C4604F080F9C4
:103ED00002467B68DB6803F5C8717B681B69CB1AF7
:103EE00092FBF3F101FB03F3D21A7B681B691344C5
:103EF000E2187B685A6000BF0C37BD4690BD0000D9
:103F000080B582B000AF786004F062F90146084BDA
:103F100083FB0132CB17D21A13465B001344CA1A33
:103F2000013A7B685A6300BF0837BD4680BD00BFB9
:103F3000565555550000000080B584B000AF78603C
:103F400004F046F902461A4B83FB02135910D317AB
:103F5000CB1AC92101FB03F3D31A643B1846FCF7C3
:103F600051FA11A3D3E90023FCF7B6FA02460B4637
:103F7000C7E902237B685A697B689B6992FBF3F36C
:103F80001846FCF73FFAD7E90223FCF7EFF80246A0
:103F90000B4610461946FCF74FFD02467B68DA6176
:103FA00000BF1037BD4680BD7B14AE47E17A943F19
:103FB00079198C0280B582B000AF78607B680222EC
:103FC0001A607B6800225A607B6800229A607B68D6
:103FD0004FF4B472DA607B68DB68244A82FB031218
:103FE0001A441211DB17D21A7B681A617B68A0226F
:103FF0005A617B68DA687B681B6992FBF3F27B6825
:104000009A617B685A697B689B6992FBF3F27B68D3
:10401000DA617B6801221A627B687B225A627B68C4
:10402000A0229A627B685A6A7B68DA627B689A6A25
:104030007B681A637B6800225A637B6800229A635C
:104040007B680022DA637B6840F239121A64786870
:10405000FFF734FFFDF7DAF80346184604F08AF854
:104060007B6818460837BD4680BD00BF89888888B0
:1040700080B582B000AF786039607B681B6B3A68AE
:104080009A420CDD7B681A6B7B689B6A9A4206DD5C
:10409000FFF77EFE03461946786800F095F800BFEA
:1040A0000837BD4680BD80B588B000AFF860B96004
:1040B0007A60FB68DB6B0022002178689847F86122
:1040C000FB68DB6B0022012178689847B861F969C9
:1040D000B86900F0ABF802460B4610461946FCF7EB
:1040E000ABFC03467B61F969B86900F0B9F8024698
:1040F0000B4610461946FCF79FFC03463B613B69A3
:104100000233BA689A4204DC3B695A1DFB68DA62E2
:104110000CE07B69023BBA689A4204DB7B695A1F58
:10412000FB68DA6202E0FB68BA68DA62FB681B6C63
:104130007A689A4208DBFB681A6CFB681A63FB68B2
:104140005A6AFB68DA6202E0FB687A681A6300BFA9
:104150002037BD4680BD80B582B000AF7860396041
:1041600039687868FFF784FF7B681A6A7B689B6907
:104170009A4208D17B68D96A7B681B6C1A467868BA
:10418000FFF791FF10E07B68DA6A7B689B6B1A444B
:104190007B685B6BD1187B681A6B7B68DB691344A7
:1041A0001A467868FFF77FFFFFF7FEFD03461946C2
:1041B000786800F009F87B681B6A5A1C7B681A62F1
:1041C00000BF0837BD4680BD80B584B000AF7860C1
:1041D0000B467B800023FB607B681B68FA689A4271
:1041E00020DA0023BB607B681B68BA689A4215DA44
:1041F0007B68DB6A9AB2FB689BB2134498B27B6817
:104200001B6B9AB2BB689BB213449BB27A88194667
:10421000FEF7CEFDBB680133BB60E4E7FB6801330A
:10422000FB60D9E700BF1037BD4680BDB0B582B096
:1042300000AF786039607868FCF7E4F804460D4612
:104240003868FCF7DFF802460B462046294602F0A4
:104250005FF902460B46104619460837BD46B0BD09
:10426000B0B582B000AF786039607868FCF7CAF802
:1042700004460D463868FCF7C5F802460B46204652
:10428000294602F05EF902460B46104619460837E9
:10429000BD46B0BD80B483B000AF786039607B6844
:1042A0003A68DA6300BF0C37BD4680BC704780B403
:1042B00083B000AF78607B6818460C37BD4680BC81
:1042C0007047B0B582B000AF786039607B6850222B
:1042D0001A607B6804334F241D46002C05DB2846FA
:1042E000FFF768FE4435013CF7E73968786800F06D
:1042F00028F87B6818460837BD46B0BD80B586B043
:1043000000AFF860B9607A603B6000237B61FB68B6
:104310001B687A699A4210DA7A6913461B011344C2
:104320009B00FA681344181D3B687A68B968FFF768
:1043300047FD7B6901337B61E9E700BF1837BD4664
:1043400080BD80B584B000AF786039600023FB6029
:104350007B681B68FA689A420FDAFA6813461B01F9
:1043600013449B007A681344043339681846FFF7F6
:1043700091FFFB680133FB60EAE700BF1037BD46E1
:1043800080BD80B584B000AF786039600023FB60E9
:104390007B681B68FA689A420FDAFA6813461B01B9
:1043A00013449B007A681344043339681846FFF7B6
:1043B0005FFEFB680133FB60EAE700BF1037BD46D4
:1043C00080BD90B583B000AF78607B680433002B6C
:1043D0000CD07B68043303F5AA547B6804339C42F9
:1043E00004D0443C2046FFF762FFF6E77B6818469E
:1043F0000C37BD4690BD000080B400AF034BB3F94D
:1044000000301846BD4680BC704700BF0C0000203D
:1044100080B58AB000AFF860B9601346FB71F868E8
:10442000FBF7F0FF60A3D3E90023FCF755F8024641
:104430000B46104619465EA3D3E90023FCF776F934
:1044400002460B461046194601F09AFF5AA3D3E9DB
:104450000023FCF741F802460B461046194658A3C4
:10446000D3E90023FCF738F802460B46C7E90823D6
:104470000023FB6154A3D3E90023C7E90423BB68ED
:10448000002B46D1FB689F2B0ADDD7E90823D7E92B
:104490000401FBF769FE02460B46C7E9082309E061
:1044A000D7E90423D7E90801FBF760FE02460B4673
:1044B000C7E90823FB79002B04D04FF000024FF02E
:1044C000000302E04FF00002414BD7E90801FBF77F
:1044D0004BFE02460B46C7E90823FB79002B0BD0A5
:1044E000D7E9080101F094FF02460B461046194631
:1044F000FCF7A2FA03460AE0D7E9080101F0C0FE82
:1045000002460B4610461946FCF796FA0346FB6135
:1045100045E0FB689F2B0ADDD7E90423D7E90801B2
:10452000FBF724FE02460B46C7E9082309E0D7E95A
:104530000823D7E90401FBF717FE02460B46C7E93B
:104540000823FB79002B04D04FF000024FF000034A
:1045500002E04FF000021E4BD7E90801FBF706FE10
:1045600002460B46C7E90823FB79002B0BD0D7E99D
:10457000080101F085FE02460B4610461946FCF77D
:104580005BFA03460AE0D7E9080101F041FF024661
:104590000B4610461946FCF74FFA0346FB61FB69D0
:1045A00018462837BD4680BD4AD8124DFB21094028
:1045B0000000000000F073400000000000C05D40FB
:1045C0009A9999999999E93F0000000000E05D40AF
:1045D0000000F03F00000000B0B58AB000AFF86006
:1045E000B9601346FB71F868FBF70CFF72A3D3E9BF
:1045F0000023FBF771FF02460B461046194670A3D5
:10460000D3E90023FCF792F802460B461046194600
:1046100001F0B6FE04460D46F868FBF7F3FE66A30C
:10462000D3E90023FBF758FF02460B461046194614
:1046300063A3D3E90023FCF779F802460B46104642
:10464000194601F0BFFF02460B4620462946FBF7FC
:1046500043FF02460B46104619465BA3D3E90023ED
:10466000FBF73AFF02460B46104619464FF0000290
:10467000594BFBF731FF02460B46C7E9082354A309
:10468000D3E90023C7E904230023FB61BB68002BA7
:1046900046D1FB689F2B0ADDD7E90823D7E904013F
:1046A000FBF762FD02460B46C7E9082309E0D7E99C
:1046B0000423D7E90801FBF759FD02460B46C7E979
:1046C0000823FB79002B04D04FF000024FF00003C9
:1046D00002E04FF00002414BD7E90801FBF744FD2F
:1046E00002460B46C7E90823FB79002B0BD0D7E91C
:1046F000080101F08DFE02460B4610461946FCF7F4
:104700009BF903460AE0D7E9080101F0B9FD02462A
:104710000B4610461946FCF78FF90346FB6145E04E
:10472000FB689F2B0ADDD7E90423D7E90801FBF7D3
:104730001DFD02460B46C7E9082309E0D7E9082317
:10474000D7E90401FBF710FD02460B46C7E9082331
:10475000FB79002B04D04FF000024FF0000302E081
:104760004FF000021D4BD7E90801FBF7FFFC0246A2
:104770000B46C7E90823FB79002B0BD0D7E90801CA
:1047800001F07EFD02460B4610461946FCF754F92F
:1047900003460AE0D7E9080101F03AFE02460B465B
:1047A00010461946FCF748F90346FB61FB691846B9
:1047B0002837BD46B0BD00BF4AD8124DFB21094085
:1047C0000000000000F073400000000000C05D40E9
:1047D0000000000000E05D400000F83F0000F03FF6
:1047E00080B588B000AFF860B9601346FB714FF038
:1047F00000024FF00003C7E9062300237B61BB687A
:10480000002B3BD1FB689F2B0CDDF868FBF7FAFD12
:104810004FF000023B4BFBF75FFE02460B46C7E939
:1048200006230FE0FB68C3F59F7301331846FBF7BF
:10483000E9FD4FF00002334BFBF74EFE02460B46FC
:10484000C7E90623FB79002B0BD0D7E9060101F05D
:10485000DFFD02460B4610461946FCF7EDF803460D
:104860000AE0D7E9060101F00BFD02460B461046AF
:104870001946FCF7E1F803467B613DE0BB68012B7C
:104880003AD1FB689F2B10DDFB68C3F59F730133A2
:104890001846FBF7B7FD4FF000021A4BFBF71CFE62
:1048A00002460B46C7E906230BE0F868FBF7AAFDB2
:1048B0004FF00002134BFBF70FFE02460B46C7E911
:1048C0000623FB79002B0BD0D7E9060101F0D8FCB9
:1048D00002460B4610461946FCF7AEF803460AE0BE
:1048E000D7E9060101F094FD02460B461046194631
:1048F000FCF7A2F803467B617B6918462037BD466A
:1049000080BD00BF0000E83F80B586B000AFF86012
:10491000B9607A60FB7000237B61FB689B68032BA6
:1049200016D0032B1CDC012B02D0022B08D017E081
:10493000FB781A467968B868FFF752FF786117E08C
:10494000FB781A467968B868FFF762FD78610FE076
:10495000FB781A467968B868FFF73EFE786107E091
:10496000FB781A467968B868FFF752FD786100BF96
:104970007B6918461837BD4680BD80B584B000AF4E
:10498000F860B9607A6000237A68B968F868FFF760
:10499000BBFF034618461037BD4680BD90B589B0B1
:1049A00002AFF860B9601346FB800122B968F8686D
:1049B000FFF7E3FF78610022B968F868FFF7DDFFD1
:1049C00038617B699BB202339BB218B2BB6819B2E3
:1049D0003B699BB2023B9BB21AB2BB681CB2FB881C
:1049E00000932346FEF79EFB00BF1C37BD4690BDDB
:1049F00080B584B000AF78607B685B69FB60FB6862
:104A00009D2B0BDCFFF7D0F903461A46F96878684E
:104A1000FFF7C4FFFB680133FB60F0E700BF10370E
:104A2000BD4680BD80B584B000AFF860B9607A60E3
:104A3000FFF7AEF903461A46B968F868FFF7AEFF0C
:104A4000FFF7B2F903461A467968F868FFF7A6FF40
:104A500000BF1037BD4680BD80B584B000AFF860A0
:104A6000C7E90023FB68DB691846FBF7CBFCD7E9F5
:104A70000023FBF731FD02460B4610461946FBF7B3
:104A8000DBFF0246FB681A6200BF1037BD4680BDDF
:104A900090B585B000AFF860B9607A60FB681B78AC
:104AA000002B4BD0B968F86800F04CF8FB685B6AE3
:104AB0009E2B39DCFB689B6AFA68126A9C18FCF72B
:104AC000A5FB03469C4294BF01230023DBB2002BCD
:104AD00018D0FB68596AFB685B6AC3F59F730133A2
:104AE000FA6852691344053B1A46F868FFF79AFFC3
:104AF000FCF78CFB0246FB689A62FB685B6A5A1CF7
:104B0000FB685A62FB6803F12C00FB685B6AC3F523
:104B10009F730133FA6852691344591FFB681B697C
:104B20007A68FFF7EBFB09E0FB6803F12C02FB68F6
:104B30005B699A3319461046FFF723FC00BF143710
:104B4000BD4690BD80B582B000AF786039603968ED
:104B5000786800F029F80346002B14BF01230023D6
:104B6000DBB2002B1CD07B6803F12C027B685B69F5
:104B70009A3319461046FFF704FC786800F03AF8BB
:104B80007B685B6903F19F027B685B6AD31A1946F5
:104B9000786800F07AF87B685B685A1C7B685A601A
:104BA00000BF0837BD4680BD80B584B000AF7860D7
:104BB00039604FF000013868FCF780FA0346002B9B
:104BC00001D0022300E00023FB607B681B69FA68C8
:104BD0009A420AD07B68FA681A617B681B69DBB26B
:104BE0001846FDF7DBFE012300E0002318461037CE
:104BF000BD4680BD80B586B000AF78607B685A6ADC
:104C00007B685B69D31AFB60FB68C3F19F03BB60E1
:104C100004237B617A69BB689A420BDA7A69FB6884
:104C200013441A4679697868FFF7FCFE7B69013303
:104C30007B61EFE77B685B6A9F2B1FD07B685B6AB9
:104C4000C3F19F03FB60FB68C3F19F03BB600023BC
:104C50003B61BB68033B3A699A420FDA3B6903F157
:104C60009F013B6903F19F02FB6813441A46786871
:104C7000FFF7D8FE3B6901333B61EAE7786800F053
:104C800011F800BF1837BD4680BD80B483B000AFB7
:104C9000786039607B683A685A6200BF0C37BD465D
:104CA00080BC7047B0B586B002AF78600023FB606F
:104CB000FB68B3F59F7F00F3A88001230122F96808
:104CC0007868FFF721FE03469CB2FB689DB2FFF7B0
:104CD00093FB03469BB21A4629462046FEF768F826
:104CE00001230122F9687868FFF70EFE03469BB2A4
:104CF000013B9CB2FB689DB2FFF77EFB03469BB273
:104D00001A4629462046FEF753F801230122F96886
:104D10007868FFF7F9FD03469BB2023B9CB2FB6843
:104D20009DB2FFF769FB03469BB21A46294620460F
:104D3000FEF73EF801230122F9687868FFF7E4FDE9
:104D400003469BB2033B9CB2FB689DB2FFF754FB4A
:104D500003469BB21A4629462046FEF729F801234E
:104D60000022F9687868FFF7CFFD03469CB2FB6824
:104D70009DB2FFF741FB03469BB21A4629462046E7
:104D8000FEF716F801230022F9687868FFF7BCFDEA
:104D900003469BB201339CB2FB689DB2FFF72CFB2C
:104DA00003469BB21A4629462046FEF701F8012326
:104DB0000022F9687868FFF7A7FD03469BB202332B
:104DC0009CB2FB689DB2FFF717FB03469BB21A46E5
:104DD00029462046FDF7ECFF01230022F968786898
:104DE000FFF792FD03469BB203339CB2FB689DB272
:104DF000FFF702FB03469BB21A4629462046FDF701
:104E0000D7FFFB680133FB6052E701230122002139
:104E10007868FFF779FD03461CB2012300220021C8
:104E20007868FFF771FD03461DB2FFF7E5FA034608
:104E30009BB2009300232A4600212046FEF772F918
:104E40000123012201217868FFF75EFD03461CB2B1
:104E50000123002201217868FFF756FD03461DB2A9
:104E6000FFF7CAFA03469BB2009301232A460121A9
:104E70002046FEF757F90123012202217868FFF747
:104E800043FD03461CB20123002202217868FFF78C
:104E90003BFD03461DB2FFF7AFFA03469BB20093FA
:104EA00002232A4602212046FEF73CF90123012273
:104EB00003217868FFF728FD03461CB20123002276
:104EC00003217868FFF720FD03461DB2FFF794FA2F
:104ED00003469BB2009303232A4603212046FEF794
:104EE00021F9012301224FF49F717868FFF70CFD2F
:104EF00003461CB2012300224FF49F717868FFF72C
:104F000003FD03461DB2FFF777FA03469BB20093F9
:104F10004FF49F732A464FF49F712046FEF702F923
:104F20000123012240F23D117868FFF7EDFC0346B2
:104F30001CB20123002240F23D117868FFF7E4FC27
:104F400003461DB2FFF758FA03469BB2009340F2A6
:104F50003D132A4640F23D112046FEF7E3F80123B7
:104F600001224FF49E717868FFF7CEFC03461CB215
:104F7000012300224FF49E717868FFF7C5FC0346B9
:104F80001DB2FFF739FA03469BB200934FF49E73AC
:104F90002A464FF49E712046FEF7C4F801230122F1
:104FA00040F23B117868FFF7AFFC03461CB20123C7
:104FB000002240F23B117868FFF7A6FC03461DB2C1
:104FC000FFF71AFA03469BB2009340F23B132A46BE
:104FD00040F23B112046FEF7A5F8FEF7D9FE034646
:104FE0009BB20222A0217720FEF74EF8FEF7D0FEFA
:104FF00003469BB20222A0217820FEF745F800BFAD
:105000001037BD46B0BD80B582B000AF7860FEF706
:10501000BFFE03469BB21846FDF7A4FE7868FFF773
:1050200041FE7868FFF7E4FC00BF0837BD4680BD4D
:1050300080B584B000AFF860B9607A60FB68BA6888
:105040009A60FB685B691946F868FFF71EFE79688D
:10505000F868FFF7A9FDF86800F008F8F868FFF7AE
:10506000D2FF00BF1037BD4680BD000080B582B0C2
:1050700000AF78607B689B68032B14D0032B19DC8E
:10508000012B02D0022B07D014E07B682C330F4990
:105090001846FFF756F914E07B682C330C49184684
:1050A000FFF74FF90DE07B682C330A491846FFF7EC
:1050B00048F906E07B682C3305491846FFF741F9AB
:1050C00000BF00BF0837BD4680BD00BFE1470008F4
:1050D00011440008D945000880B483B000AF78605F
:1050E0007B6823F0004318460C37BD4680BC7047F0
:1050F00080B582B000AF7860786801F0A9FA034605
:1051000018460837BD4680BD80B582B000AF7860D4
:10511000786801F0DDFA034618460837BD4680BDC1
:1051200080B582B000AF786039607B6801221A7068
:105130007B6801225A707B684FF07E525A60386853
:10514000FFF7CAFF03460C491846FBF7FBFD034671
:105150001846FBF7F9FF0346184603F00BF8FEF775
:1051600017FE03469BB21846FDF7FCFD7B68184608
:105170000837BD4680BD00BF0050C34790B585B01D
:1051800000AF786039607B685B6819463868FBF768
:1051900095FF0346002B02D04FF0000321E07B680F
:1051A0005A687B685B6819461046FBF7CBFD0346DF
:1051B0001C4639683868FBF7C5FD0346194620468A
:1051C000FBF7B6FC03461846FEF7FDF8F8607B686F
:1051D0005B78002B01D0FB6802E0FB6883F00043A2
:1051E00000BF18461437BD4690BDB0B58CB000AFB7
:1051F000F860B9607A603B60B868FFF76DFF0246FF
:10520000FB685B6801210C4619461046FBF742FF1C
:105210000346002B01D100231C46E3B2002B00F013
:105220000981B968F868FFF7A9FFF861B868FFF766
:105230006BFFB860F869FFF767FFF8610223BB6195
:105240000023FB62FA6ABB699A4243DA0023BB621D
:10525000BA6ABB699A4239DAF86AFBF71FFD03465E
:10526000B9681846FBF766FC03461C467868FBF7EE
:1052700015FD034619462046FBF75CFC034618461D
:10528000FBF762FF03469CB2B86AFBF707FD0346D3
:10529000F9691846FBF74EFC03461D463868FBF7D4
:1052A000FDFC034619462846FBF744FC0346184616
:1052B000FBF74AFF03469BB2B7F840201946204649
:1052C000FDF776FDBB6A0133BB62C1E7FB6A0133C0
:1052D000FB62B7E7B868FFF7FFFE03461846FFF723
:1052E00007FF0446FB685B681846FFF7F5FE0346B8
:1052F0001846FFF709FF03460122154619462046C6
:10530000FBF7B4FE0346002B01D100231D46EBB290
:10531000002B00F08F80BB697B61FB685B681846DF
:10532000FBF7ECFE03469A007B6892FBF3F33B61CC
:105330007B697B627A693B6913447A6A9A4279DCB9
:1053400000233B623A6ABB699A426FDA386AFBF71C
:10535000A5FC0346B9681846FBF7ECFB03461C4660
:105360007868FBF79BFC034619462046FBF7E2FBF7
:1053700003461846FBF7E8FE03469CB2786AFBF743
:105380008DFC0346F9691846FBF7D4FB03461D461E
:105390003868FBF783FC034619462846FBF7CAFB2F
:1053A00003461846FBF7D0FE03469BB2B7F84020F1
:1053B00019462046FDF7FCFC386AFBF76FFC0346F4
:1053C000B9681846FBF7B6FB03461C467868FBF73E
:1053D00065FC034619462046FBF7ACFB034618461E
:1053E000FBF7B2FE03469CB2786AFBF757FC034614
:1053F0001946F869FBF79CFB03461D463868FBF726
:105400004DFC034619462846FBF794FB0346184615
:10541000FBF79AFE03469BB2B7F840201946204698
:10542000FDF7C6FC3B6A01333B628BE77B6A0133C5
:105430007B627FE700BF3037BD46B0BD80B485B02A
:1054400000AF7860074BFB607B681B78002B01D0B6
:10545000FB6802E0FB6883F0004318461437BD4642
:1054600080BC70479A99193E90B589B002AF7860B8
:105470000B467B8013463B8077233B619F23FB6079
:105480004FF000037B617B684FF07E525A607B686F
:105490005C683869FBF702FC034619462046FBF7B7
:1054A000F9FD0346002B00D171E07869FBF726FE79
:1054B00002463B6901339A421BD07869FBF71EFE16
:1054C00002463B69DB439A4213D07869FBF716FE2C
:1054D0000346002BB8BF5B421846FBF7DFFB0246D2
:1054E0007B685B6819461046FBF7E8FD0346002B16
:1054F0000DD07B681B7883F00103DAB27B681A70E9
:105500007B685B7883F00103DAB27B685A707B6852
:105510005B681846FAF788FF1FA3D3E90023FAF760
:1055200025FE02460B4610461946FBF7ADFA024629
:105530007B685A60B7F902300093FB683A69796971
:105540007868FFF752FE7B685B7883F00103DAB27C
:105550007B685A707B6983F00041B7F90030009393
:10556000FB683A697868FFF740FE7B685B7883F0F8
:105570000103DAB27B685A707868FFF75FFF034671
:1055800019467869FBF7D6FA03467B617FE71C373B
:10559000BD4690BDAFF300801B2FDD240681953FF3
:1055A00090B585B000AF786002F012FE0346214A44
:1055B00082FB03121A449113DA178A1A47F27771A1
:1055C00001FB02F29A1A93B2A3F5EE43783B9BB229
:1055D000FB8102F0FDFD0346164A82FB03121A44CA
:1055E0009113DA178A1A47F2777101FB02F29A1ABD
:1055F00093B2A3F5EE43783B9BB2BB81B7F90C2085
:10560000B7F90E3019467868FFF72EFF6420FBF7D4
:1056100003FEFEF7BDFB03461C46FEF7B9FB03463F
:105620001A4621467868FFF71FFF00BF1437BD46B2
:1056300090BD00BF6F1B258980B582B000AF786038
:1056400039607B6800221A707B6800225A607B6890
:1056500002229A607B680322DA607B6802221A6168
:105660007B681E225A617B684FF47A729A617B686C
:105670009A697B685B69C3F19F0392FBF3F27B68D5
:10568000DA617B689A697B685B69C3F19F0392FB6F
:10569000F3F27B681A627B685A697B685A627B689E
:1056A00000229A627B682C330C491846FEF709FEEB
:1056B0004FF000020A4B7868FFF7CEF93968786836
:1056C000FFF772FA00217868FDF799FE7868FFF716
:1056D0009AFC7B6818460837BD4680BD1144000817
:1056E0000000244080B582B000AF78607B68002263
:1056F0001A707B6800225A607B6802229A607B687D
:105700000322DA607B6802221A617B681E225A61DA
:105710007B684FF47A729A617B689A697B685B69EF
:10572000C3F19F0392FBF3F27B68DA617B689A69AD
:105730007B685B69C3F19F0392FBF3F27B681A629B
:105740007B685A697B685A627B6800229A627B6830
:105750002C3304491846FEF7B4FD7B681846083719
:10576000BD4680BD1144000880B582B000AF7860AE
:105770007B682C331846FEF724FE7B6818460837F2
:10578000BD4680BD80B5ADF5AB5D86B000AF07F519
:10579000AF63A3F27453186007F5AF63A3F5AF636B
:1057A0001960794A07F5AF63A3F274531B681A6056
:1057B00007F5AF63A3F274531B6802225A6007F522
:1057C000AF63A3F274531B6800221A7207F5AF632C
:1057D000A3F274531B6800225A7207F5AF63A3F259
:1057E00074531B6804229A7207F5AF63A3F27453D3
:1057F0001B680022DA7207F5AF63A3F274531B68CB
:1058000041221A7307F5AF63A3F274531B68822217
:105810005A7307F5AF63A3F274531B680A229A7395
:1058200007F5AF63A3F274531B687F22DA7307F5A1
:10583000AF63A3F274531B6882221A7407F5AF6337
:10584000A3F274531B6803225A7407F5AF63A3F2E3
:1058500074531B6802229A7407F5AF63A3F2745362
:105860001B683822DA7407F5AF63A3F274531B6820
:10587000EB221A7507F5AF63A3F274531B68042279
:105880005A7507F5AF63A3F274531B6803229A7528
:1058900007F5AF63A3F274531B688222DA7507F52C
:1058A000AF63A3F274531B68EB221A7607F5AF635C
:1058B000A3F274531B6800225A7607F5AF63A3F274
:1058C00074531B6800229A7607F5AF63A3F27453F2
:1058D0001B680022DA6107F5AF63A3F274531B68FB
:1058E00000221A6207F5AF63A3F274531B6800220B
:1058F0005A6207F5AF63A3F274531B6800229A62E1
:1059000007F5AF63A3F274531B680022DA6207F550
:10591000AF63A3F274531B6800221A6307F5AF63E9
:10592000A3F274531B6834331846FFF7DBFE07F508
:10593000AF63A3F5AF6207F11803103B1168184677
:10594000FFF77AFE07F5AF63A3F274531B6807F500
:10595000AF62A2F5AE623433114641F2705218467E
:1059600001F0B6FE07F11803103B1846FFF7FCFEE6
:1059700007F5AF63A3F274531B68184607F5AB57DE
:105980001837BD4680BD00BFACD1000880B582B0DD
:1059900000AF7860064A7B681A607B68343318462B
:1059A000FFF7E2FE7B6818460837BD4680BD00BFA2
:1059B000ACD1000880B582B000AF78607868FFF79E
:1059C000E5FF41F2A451786800F055FC7B68184669
:1059D0000837BD4680BD000080B586B004AF0346E1
:1059E0000A46FB711346BB710A4AFB791370FB79B7
:1059F0009AB2BB799BB24FF47A7102910193064B34
:105A000000930123D0210548FCF758F800BF083760
:105A1000BD4680BD18030020200300201002002096
:105A200080B500AF06213B20FFF7D6FF154B1B7852
:105A30009BB21B029AB2134B5B789BB213449BB28E
:105A4000A3F582739BB21AB20F4B1A800D4B9B7851
:105A50009BB21B029AB20B4BDB789BB213449BB2F6
:105A60001AB2094B5A80074B1B799BB21B029AB2A0
:105A7000044B5B799BB213449BB21AB2024B9A80DF
:105A800000BF80BD200300200403002080B500AFCC
:105A9000FFF7C6FF184BB3F900301846FBF7FEF8C6
:105AA00003464FF08C411846FBF700FA03461A46AE
:105AB000124B1A60104BB3F902301846FBF7EEF8A0
:105AC00003464FF08C411846FBF7F0F903461A469F
:105AD0000A4B5A60084BB3F904301846FBF7DEF85E
